:04000000BEEF3FF020
:107F7C00026A0001D9EF3FF0000EC96E9EA6FED733
:107F8C00C95012000F0EC16E93809382949E928AF8
:107F9C00C69AC79EC79CC69CC688C650F00B0509DE
:107FAC00C66EC68A1200D380D382D388D38AD39C60
:107FBC009B8E9D86F28C9398939A939C8A988A9A1E
:107FCC008A8CC8EC3FF0C2EC3FF0016E0F0E01182A
:107FDC00D8A403D08A888A9A06D0020E0118D8A495
:107FEC0002D08A988A8AF20E0218D8A4ECD78A9CFE
:047FFC008A8CE9D7AB
:020000040020DA
:08000000FFFFFFFFFFFFFFFF00
:020000040030CA
:0E0000000089381EFF8081FF0FC00FE00F4007
:00000001FF
