:040000009DEF3FF041
:107F3A00066A056A0001CCEF3FF0000EC96EC7B0B1
:107F4A001200C9501200016E01C0C9FFC7A0FED7B6
:107F5A00C9501200000E046E000E036E02D0034ACE
:107F6A00042A0150035C02500458D8B01200F7D713
:107F7A0093809392949EC69AC79EC79CC69EC69C9F
:107F8A00C688C690C692C694C696C68A1200D38080
:107F9A00D382D388D38AD39C9B8E9D86F28C9E965D
:107FAA00939A939C8A8CBDEC3FF0070E026ED00E1A
:107FBA00016EAFEC3FF08A9A020EA8EC3FF0056E14
:107FCA00A2EC3FF0066E0F0EA8EC3FF0056E8A8A0F
:107FDA00F20E0618D8A408D08A9C070E026ED00E9C
:107FEA00016EAFEC3FF08A8C070E026ED00E016E66
:067FFA00AFEC3FF0DAD706
:020000040020DA
:08000000FFFFFFFFFFFFFFFF00
:020000040030CA
:0E0000000089391EFF8081FF0FC00FE00F4006
:00000001FF
